{
  "contractName": "Test",
  "abi": [
    {
      "inputs": [],
      "stateMutability": "nonpayable",
      "type": "constructor"
    },
    {
      "anonymous": false,
      "inputs": [
        {
          "indexed": false,
          "internalType": "string",
          "name": "fileURL",
          "type": "string"
        },
        {
          "indexed": false,
          "internalType": "string",
          "name": "fileName",
          "type": "string"
        },
        {
          "indexed": false,
          "internalType": "address",
          "name": "fileOwner",
          "type": "address"
        },
        {
          "indexed": false,
          "internalType": "string",
          "name": "ownerName",
          "type": "string"
        }
      ],
      "name": "FileUploaded",
      "type": "event"
    },
    {
      "inputs": [],
      "name": "count",
      "outputs": [
        {
          "internalType": "uint256",
          "name": "",
          "type": "uint256"
        }
      ],
      "stateMutability": "view",
      "type": "function",
      "constant": true
    },
    {
      "inputs": [],
      "name": "owner",
      "outputs": [
        {
          "internalType": "address",
          "name": "",
          "type": "address"
        }
      ],
      "stateMutability": "view",
      "type": "function",
      "constant": true
    },
    {
      "inputs": [
        {
          "internalType": "string",
          "name": "_fileURL",
          "type": "string"
        },
        {
          "internalType": "string",
          "name": "_fileName",
          "type": "string"
        },
        {
          "internalType": "address",
          "name": "_fileOwner",
          "type": "address"
        },
        {
          "internalType": "string",
          "name": "_ownerName",
          "type": "string"
        }
      ],
      "name": "addFile",
      "outputs": [],
      "stateMutability": "payable",
      "type": "function",
      "payable": true
    },
    {
      "inputs": [
        {
          "internalType": "uint256",
          "name": "x",
          "type": "uint256"
        }
      ],
      "name": "getData",
      "outputs": [
        {
          "components": [
            {
              "internalType": "string",
              "name": "fileURL",
              "type": "string"
            },
            {
              "internalType": "string",
              "name": "fileName",
              "type": "string"
            },
            {
              "internalType": "address",
              "name": "fileOwner",
              "type": "address"
            },
            {
              "internalType": "string",
              "name": "ownerName",
              "type": "string"
            }
          ],
          "internalType": "struct FileData",
          "name": "",
          "type": "tuple"
        }
      ],
      "stateMutability": "view",
      "type": "function",
      "constant": true
    },
    {
      "inputs": [],
      "name": "getCount",
      "outputs": [
        {
          "internalType": "uint256",
          "name": "",
          "type": "uint256"
        }
      ],
      "stateMutability": "view",
      "type": "function",
      "constant": true
    }
  ],
  "bytecode": "0x608060405234801561001057600080fd5b506000600181905550336000806101000a81548173ffffffffffffffffffffffffffffffffffffffff021916908373ffffffffffffffffffffffffffffffffffffffff160217905550610ddd806100686000396000f3fe60806040526004361061004a5760003560e01c80630178fe3f1461004f57806306661abd1461008c5780638da5cb5b146100b7578063a87d942c146100e2578063f308701c1461010d575b600080fd5b34801561005b57600080fd5b5061007660048036038101906100719190610575565b610129565b60405161008391906106ed565b60405180910390f35b34801561009857600080fd5b506100a1610371565b6040516100ae919061071e565b60405180910390f35b3480156100c357600080fd5b506100cc610377565b6040516100d99190610748565b60405180910390f35b3480156100ee57600080fd5b506100f761039b565b604051610104919061071e565b60405180910390f35b610127600480360381019061012291906108c4565b6103a5565b005b6101316104ed565b600282815481106101455761014461097f565b5b906000526020600020906004020160405180608001604052908160008201805461016e906109dd565b80601f016020809104026020016040519081016040528092919081815260200182805461019a906109dd565b80156101e75780601f106101bc576101008083540402835291602001916101e7565b820191906000526020600020905b8154815290600101906020018083116101ca57829003601f168201915b50505050508152602001600182018054610200906109dd565b80601f016020809104026020016040519081016040528092919081815260200182805461022c906109dd565b80156102795780601f1061024e57610100808354040283529160200191610279565b820191906000526020600020905b81548152906001019060200180831161025c57829003601f168201915b505050505081526020016002820160009054906101000a900473ffffffffffffffffffffffffffffffffffffffff1673ffffffffffffffffffffffffffffffffffffffff1673ffffffffffffffffffffffffffffffffffffffff1681526020016003820180546102e8906109dd565b80601f0160208091040260200160405190810160405280929190818152602001828054610314906109dd565b80156103615780601f1061033657610100808354040283529160200191610361565b820191906000526020600020905b81548152906001019060200180831161034457829003601f168201915b5050505050815250509050919050565b60015481565b60008054906101000a900473ffffffffffffffffffffffffffffffffffffffff1681565b6000600154905090565b600260405180608001604052808681526020018581526020018473ffffffffffffffffffffffffffffffffffffffff168152602001838152509080600181540180825580915050600190039060005260206000209060040201600090919091909150600082015181600001908161041c9190610bba565b5060208201518160010190816104329190610bba565b5060408201518160020160006101000a81548173ffffffffffffffffffffffffffffffffffffffff021916908373ffffffffffffffffffffffffffffffffffffffff160217905550606082015181600301908161048f9190610bba565b5050507fcd0f7c1a7e7c03bf65901c6227cb6ee66535c06eb8a4ff5479759a875c966dcd848484846040516104c79493929190610cd6565b60405180910390a1600160008154809291906104e290610d5f565b919050555050505050565b60405180608001604052806060815260200160608152602001600073ffffffffffffffffffffffffffffffffffffffff168152602001606081525090565b6000604051905090565b600080fd5b600080fd5b6000819050919050565b6105528161053f565b811461055d57600080fd5b50565b60008135905061056f81610549565b92915050565b60006020828403121561058b5761058a610535565b5b600061059984828501610560565b91505092915050565b600081519050919050565b600082825260208201905092915050565b60005b838110156105dc5780820151818401526020810190506105c1565b838111156105eb576000848401525b50505050565b6000601f19601f8301169050919050565b600061060d826105a2565b61061781856105ad565b93506106278185602086016105be565b610630816105f1565b840191505092915050565b600073ffffffffffffffffffffffffffffffffffffffff82169050919050565b60006106668261063b565b9050919050565b6106768161065b565b82525050565b600060808301600083015184820360008601526106998282610602565b915050602083015184820360208601526106b38282610602565b91505060408301516106c8604086018261066d565b50606083015184820360608601526106e08282610602565b9150508091505092915050565b60006020820190508181036000830152610707818461067c565b905092915050565b6107188161053f565b82525050565b6000602082019050610733600083018461070f565b92915050565b6107428161065b565b82525050565b600060208201905061075d6000830184610739565b92915050565b600080fd5b600080fd5b7f4e487b7100000000000000000000000000000000000000000000000000000000600052604160045260246000fd5b6107a5826105f1565b810181811067ffffffffffffffff821117156107c4576107c361076d565b5b80604052505050565b60006107d761052b565b90506107e3828261079c565b919050565b600067ffffffffffffffff8211156108035761080261076d565b5b61080c826105f1565b9050602081019050919050565b82818337600083830152505050565b600061083b610836846107e8565b6107cd565b90508281526020810184848401111561085757610856610768565b5b610862848285610819565b509392505050565b600082601f83011261087f5761087e610763565b5b813561088f848260208601610828565b91505092915050565b6108a18161065b565b81146108ac57600080fd5b50565b6000813590506108be81610898565b92915050565b600080600080608085870312156108de576108dd610535565b5b600085013567ffffffffffffffff8111156108fc576108fb61053a565b5b6109088782880161086a565b945050602085013567ffffffffffffffff8111156109295761092861053a565b5b6109358782880161086a565b9350506040610946878288016108af565b925050606085013567ffffffffffffffff8111156109675761096661053a565b5b6109738782880161086a565b91505092959194509250565b7f4e487b7100000000000000000000000000000000000000000000000000000000600052603260045260246000fd5b7f4e487b7100000000000000000000000000000000000000000000000000000000600052602260045260246000fd5b600060028204905060018216806109f557607f821691505b602082108103610a0857610a076109ae565b5b50919050565b60008190508160005260206000209050919050565b60006020601f8301049050919050565b600082821b905092915050565b600060088302610a707fffffffffffffffffffffffffffffffffffffffffffffffffffffffffffffffff82610a33565b610a7a8683610a33565b95508019841693508086168417925050509392505050565b6000819050919050565b6000610ab7610ab2610aad8461053f565b610a92565b61053f565b9050919050565b6000819050919050565b610ad183610a9c565b610ae5610add82610abe565b848454610a40565b825550505050565b600090565b610afa610aed565b610b05818484610ac8565b505050565b5b81811015610b2957610b1e600082610af2565b600181019050610b0b565b5050565b601f821115610b6e57610b3f81610a0e565b610b4884610a23565b81016020851015610b57578190505b610b6b610b6385610a23565b830182610b0a565b50505b505050565b600082821c905092915050565b6000610b9160001984600802610b73565b1980831691505092915050565b6000610baa8383610b80565b9150826002028217905092915050565b610bc3826105a2565b67ffffffffffffffff811115610bdc57610bdb61076d565b5b610be682546109dd565b610bf1828285610b2d565b600060209050601f831160018114610c245760008415610c12578287015190505b610c1c8582610b9e565b865550610c84565b601f198416610c3286610a0e565b60005b82811015610c5a57848901518255600182019150602085019450602081019050610c35565b86831015610c775784890151610c73601f891682610b80565b8355505b6001600288020188555050505b505050505050565b600082825260208201905092915050565b6000610ca8826105a2565b610cb28185610c8c565b9350610cc28185602086016105be565b610ccb816105f1565b840191505092915050565b60006080820190508181036000830152610cf08187610c9d565b90508181036020830152610d048186610c9d565b9050610d136040830185610739565b8181036060830152610d258184610c9d565b905095945050505050565b7f4e487b7100000000000000000000000000000000000000000000000000000000600052601160045260246000fd5b6000610d6a8261053f565b91507fffffffffffffffffffffffffffffffffffffffffffffffffffffffffffffffff8203610d9c57610d9b610d30565b5b60018201905091905056fea26469706673582212207252f10b7baca3e80d948883c49d835d508bac1b96b584478e6e056aa2f4f56764736f6c634300080f0033",
  "immutableReferences": {},
  "source": "// SPDX-License-Identifier: MIT\r\npragma solidity >=0.4.22 <0.9.0;\r\n\r\nstruct FileData {\r\n    string fileURL;\r\n    string fileName;\r\n    address fileOwner;\r\n    string ownerName;\r\n}\r\n    \r\ncontract Test {\r\n    address public owner;\r\n    uint public count;\r\n    \r\n    FileData[] FileArray;\r\n\r\n    event FileUploaded(\r\n        string fileURL,\r\n        string fileName,\r\n        address fileOwner,\r\n        string ownerName\r\n    );\r\n\r\n    constructor(){\r\n        count=0;\r\n        owner = msg.sender;\r\n    }\r\n\r\n    function addFile(string memory _fileURL, string memory _fileName, address _fileOwner, string memory _ownerName) public payable{\r\n        FileArray.push(FileData(_fileURL, _fileName, _fileOwner, _ownerName));\r\n        emit FileUploaded(_fileURL, _fileName, _fileOwner, _ownerName);\r\n        count++;\r\n    }\r\n\r\n    function getData(uint x) public view returns(FileData memory){\r\n        return FileArray[x];\r\n    }\r\n\r\n    function getCount() public view returns(uint){\r\n        return count;\r\n    }\r\n}\r\n",
  "sourcePath": "C:\\Users\\kaustubh\\Desktop\\FileUpload\\contracts\\Test.sol",
  "compiler": {
    "name": "solc",
    "version": "0.8.15+commit.e14f2714.Emscripten.clang"
  },
  "schemaVersion": "3.4.8",
  "updatedAt": "2022-08-09T20:10:26.025Z",
  "networkType": "ethereum",
  "devdoc": {
    "kind": "dev",
    "methods": {},
    "version": 1
  },
  "userdoc": {
    "kind": "user",
    "methods": {},
    "version": 1
  }
}